:020000040800F2
:10000000C80F0020CD00000821200008351C000882
:1000100000000000000000000000000000000000E0
:100020000000000000000000000000004320000865
:100030000000000000000000232000084520000808
:10004000DF00000800000000DF000008DF000008FB
:10005000DF000008DF000008DF000008DF00000804
:1000600000000000DF000008DF000008DF000008DB
:10007000DF000008DF000008DF00000800000000CB
:10008000B1200008DF000008DF000008DF000008E2
:10009000DF000008DF000008DF000008DF000008C4
:1000A000DF000008DF000008DF000008D12500089D
:1000B000E1250008DF0000080348854600F0F4FA57
:1000C00000480047F53E0008C80F0020044880475C
:1000D00004480047FEE7FEE7FEE7FEE7FEE7FEE72F
:1000E000AF200008B900000830B50B4601460020DB
:1000F0002022012409E00D46D5409D4205D31D462E
:100100009540491B2546954040191546521E002D25
:10011000F1DC30BDF0B51FB40646002082B00546C4
:100120004024019100901BE0019922460F46304681
:1001300000F020F8049A059B801A994110D31046CC
:100140001946224600F092F9361A8F41019722464D
:1001500001200021009F00F089F938184D410090DE
:100160002046641E0028DFDC019B009829463246A9
:1001700007B0F0BD10B5202A04DB0846203AD04075
:10018000002110BD0B46D340D0402024A21A91403C
:100190000843194610BDD2B201E00270401C491E4E
:1001A000FBD270470022F6E710B513460A46044614
:1001B0001946FFF7F0FF204610BD30B505462A4628
:1001C0000B4610781C78521C5B1C002801D0A04202
:1001D000F7D0002C03D0002802D06D1CEFE7284692
:1001E00030BD421C0178401C0029FBD1801A7047A9
:1001F000F0B507460846584087B0C00F0490480045
:100200000E46590040084908BC1A884105D23846B4
:1002100031461E4617460B4602465800400810431A
:100220004CD0300D039040055900400D490D05900C
:10023000401A0290402872DA18030121000B0905C8
:100240000843019004980092002805D00199524279
:100250000020884100920190029840210A1A0199D9
:10026000009800F003F905460C466B4607CB00F0FA
:100270000DF9C0197141039A0E0D0023D71756408E
:100280001A467A40164344D0049A002A2DD0029A86
:10029000012A039A15DC1205C01A91410126360580
:1002A000001C7141D20F059ED20700930192029665
:1002B0002A46234600F00AF907B0F0BD3846314619
:1002C000FAE71605224A0F46B218C01AB7410121B3
:1002D0000905001C4F4100187F411146181879414B
:1002E000E20F10436D19644113E0E2076D081543F6
:1002F0006408C2071443039A01261205C01A9141EB
:100300003605001C7141CE07400830434908C0182B
:1003100051412A46234600F0CCF8CDE7FFE7049888
:1003200001224000C117121A00238B410498314664
:10033000C417381AA141EEE730B40124E407634042
:1003400030BC55E730B40124E407614030BC4FE7CE
:100350000000E0FFF0B50C465C4085B0E40FE40718
:1003600003944C000026640859009446490802464C
:100370000296224321D062460A431ED06200570DE6
:100380004A000E032303550D012402462C4924057F
:10039000781B1B0B360B4018234326436146009005
:1003A0001C46501AB44103D30098401C009002E050
:1003B000921800985B41002803DA0020014605B03E
:1003C000F0BD0020012109050746864611E064467C
:1003D0001D46141BB54106D36546521BB3417446F6
:1003E00007430C43A646CD07400849082843921806
:1003F0005B4105460D43EAD11046184313D06046D1
:10040000194650407140084306D06046101AB34167
:1004100006D20122002306E000220123DB0702E0CE
:100420000122D2435310009874460105381C6141E3
:10043000029C039D0019694100F03BF8BFE70000F2
:10044000FD030000C20FD207400040080BD0C10DD1
:100450000723DB01C91840020905400A1143C208FD
:1004600040071143704700200146704710B5202A0D
:1004700004DB0146203A9140002010BD914020232A
:100480009C1A0346E3401943904010BD10B5202A42
:1004900006DBCB170846203A1041C1170B4306E094
:1004A0000B461341D0402024A21A9140084319461C
:1004B00010BD10B5002B08DA0024401C61419218D1
:1004C0005B411A4301D14008400010BDF0B51FB494
:1004D00082B005460C0003D0084602F0C3F802E0E3
:1004E00002F0C0F820300246009021462846FFF76F
:1004F000BDFF049B059A04460F4618431143084369
:1005000014D0184610431BD0009840210A1A1846F0
:100510000599FFF72FFE05460E46009A05990498A7
:10052000FFF7A4FF084305D0012004E02046394628
:1005300007B0F0BD0020C11705430E432C433743DD
:1005400000990E986305401A7905E40A00220C43CD
:10055000FD0A0A3002D500200146E9E7010510191D
:1005600069410C9C0D9D00196941FFF7A2FFDFE76F
:10057000F0B51FB488B00B99099800244840099938
:10058000C00F490049080991C0070B990090490024
:1005900049080B9109990898A64608431CD00B9965
:1005A0000A98084318D0099801244000420D4800D9
:1005B000410D099824050003000B204309900B9876
:1005C0000003000B20430B9050181C4940180022D8
:1005D00001901446104605E0002001460DB0F0BD24
:1005E000032801DA034600E003239C46C11A0AAE41
:1005F0000AE05F0008ADED5B4F00F75B7D4300272D
:10060000AA187C41491C5B1E6145F2DD410004AB28
:100610005A522104120C0A43240C401C0828DFDB28
:10062000019802900099704601910090059B049AF0
:1006300007990698FFF74AFFD0E700000DFCFFFF7F
:100640004A0009030123090B1B0519430A4B10B586
:10065000520D9A4202DA0020014610BD064B343397
:100660009A4203DC9A1AFFF785FD10BD034BD2189E
:10067000FFF7FCFE10BD0000FF030000CDFBFFFFF5
:1006800010B5002904DB0124E40740428C412146D7
:10069000002B04DB1C460123DB075242A341994295
:1006A00000D1904210BD0000064C0125064E05E029
:1006B000E36807CC2B430C3C98471034B442F7D383
:1006C000FFF7FEFCFC4300081C44000810B509219C
:1006D0001048C90601221203016082808160511016
:1006E000818101F0A8FA0B4801F0E0FA7021094875
:1006F00001F0AEFAE121074801F0AAFA0821054805
:1007000001F0A6FA0021034801F0A2FA014801F025
:10071000EAFA10BDB800002010B50A4808490122C5
:100720005202016082808160511081810920002283
:10073000C901C00600F057FA024801F07CFA10BD6A
:1007400000040048C800002070470000F8B50025EC
:10075000044620340095227D012A39D001222275D9
:1007600003689E68760767D4384F4E68BE424DD006
:100770009E6A0F78BA4016439E620123C26A1B0725
:100780009A421FD0012A1DD0022A1BD0032A19D059
:10079000042A17D0052A15D0062A13D0072A11D00B
:1007A00002688B6856697607760FB3420AD05369A0
:1007B000DB08DB005361006842690B7A5B075B0F63
:1007C0001A4342610A68102A04D0112A02D038E084
:1007D0000220F8BD1E488368102A07D00122920526
:1007E000134383600868102803D02AE00122D20551
:1007F000F6E7194817490068FFF776FC0A214843D5
:1008000000E0401E00900028FBD11AE0986A0E78A4
:10081000B240904398620968102901D0112910D183
:100820000B488268102904D0012189058A4382601F
:1008300007E00121C905F9E7816B2022114381639B
:100840000125002020752846F8BD00000110000099
:100850000027014040420F00B0000020F8B50025FD
:100860000446002805D0A06B26462036002802D07A
:1008700007E00120F8BD0020E0633075204600F05D
:10088000A7F8A06B1022104270D120688168490738
:100890006CD4A16B1301994302231943A1638168AE
:1008A0008907890F012905D10168C9070FD1C168DE
:1008B00009040CD4C16818239943A3681943C16083
:1008C000206801696368890089081943016120680B
:1008D000C1683D4B1940C160207E617E8003C90321
:1008E0000843A17E4B031843A36A012B02D00123C6
:1008F0001B0300E000231843E36818432369022B1D
:1009000009D0002318433379E67E5B0018430123A6
:10091000012E02D00AE00423F4E7002927D0A16BBE
:1009200020263143A163E16B1943E163E1690E467F
:10093000FF3EC23E02D0266A314308432168CE689A
:100940000643CE600126E16A3607B14213D0012981
:1009500011D002290FD003290DD004290BD005296D
:1009600009D0062907D0072905D010E028E0012189
:1009700009040843DAE721684E69F608F6004E617B
:1009800021684E69A78D7F077F0F3E434E61216826
:10099000C9680E4E3140814207D10020E063A06B50
:1009A00080088000401CA06308E0A06B02218843FF
:1009B0001043A063E06B1843E06301252846F8BDAF
:1009C000A06B1043A063F8E71902FEFFE7FF3F8327
:1009D00010B586B0044614216846FFF7E3FB1049C2
:1009E0002068884219D10F48826941150A43826103
:1009F00082690A400592426909020A4342614069DC
:100A00000840059060200090032001900020029093
:100A100009206946C00600F03DF806B010BD000090
:100A2000002401400010024070B50024014620312E
:100A30004A78022A03D004218163012416E0026867
:100A400013680E25AB431360026813685B085B00F4
:100A500013600122056C1346AB40C56B6B604A7096
:100A600000220A70416B002900D08847204670BDE3
:100A700070B5044600F0BEF80546601C02D004487C
:100A80000078241800F0B6F8401BA042FAD370BDDD
:100A9000A4000020F8B500238DE001249C40A4466A
:100AA00022407DD04C68022C01D0122C0CD1DC08E5
:100AB000A40027183C6A5D07ED0E0F26AE40B44334
:100AC0000E69AE4026433E6205685E000324B440D2
:100AD0000F79A543BF07BF0FB7402F4307604D688D
:100AE000012D05D0022D03D0112D01D0122D0ED1D4
:100AF0008568CF68A543B7402F4387604768654640
:100B0000AF430D79ED06ED0F9D403D434560C5684F
:100B1000A5438C68B4402C43C4604C68E40049D5BC
:100B2000284CA56901263543A561A4699D08344078
:100B30000094254CAD002F19BC689D072E0F0F2582
:100B4000B540AC430925ED06A84201D100250FE0D0
:100B50001E4DA84201D101250AE01D4DA84201D138
:100B6000022505E01B4DA84201D1032500E0052523
:100B7000B5402543BD60184C25684E689543F60383
:100B800000D51543256065684E689543B60300D5CA
:100B900015436560A5684E689543F60202D500E0EE
:100BA00008E01543A560E5684E689543B60200D598
:100BB0001543E5605B1C0A681446DC4000D06CE716
:100BC000F8BD000000100240000001400004004891
:100BD00000080048000C004800040140006908407B
:100BE00000D001207047002A01D0816170478162E6
:100BF000704700000148806870470000A400002092
:100C0000024881680278891881607047A40000203A
:100C100010B506480168102211430160002000F061
:100C200007F800F027F8002010BD00000020024067
:100C300070B504460D4D7D202978C000FFF754FAA9
:100C400001460B480068FFF74FFA00F03FFB002811
:100C500009D1042C07D200222146401E00F02AF8B8
:100C600000206C6070BD012070BD0000A400002059
:100C7000B000002008B50848816901221143816154
:100C8000816911400091C26901040A43C261C069CF
:100C90000840009008BD000000100240002805DB5D
:100CA000C106C90E01208840014908607047000054
:100CB00000E100E010B501F011FD10BDF8B50546EA
:100CC0000068354CC00352D5E0690026C00007D447
:100CD000E16920040143E161E169014001260091DD
:100CE0002E480168C90510D40168821511430160BE
:100CF000FFF780FF074604E0FFF77CFFC01B642876
:100D000024D826480068C005F6D5206A03273F028C
:100D1000384020D06968394081421CD0206A226A5C
:100D2000B843012109040A432262226A8A432262EB
:100D30002062C0070FD0FFF75DFF009008E0FFF7CB
:100D400059FF0099411A1648814201D90320F8BD84
:100D5000206A8007F3D5206A6968B8430843206297
:100D6000002E04D0E169012000078143E161287869
:100D7000C00705D0206BA968800880000843206365
:100D80002878800605D5206B10218843E968084340
:100D900020630020F8BD00000010024000700040F9
:100DA00088130000F8B50F46060059D03A4D286860
:100DB000C007C00FB84209D2286840084000384335
:100DC00028602868C007C00FB84249D13068334C4A
:100DD00081070CD5400704D5606807210902084344
:100DE00060606068F0218843B168084360603078D3
:100DF000C00726D0706801280ED0216802280ED0C6
:100E0000890700292CDA616889088900014361603B
:100E1000FFF7F0FE00900DE021688903F1E78901FA
:100E2000EFE7FFF7E7FE0099411A1D48814201D91B
:100E30000320F8BD60680C21084071688900884271
:100E4000EFD12868C007C00FB8420BD92868400806
:100E50004000384328602868C007C00FB84201D05E
:100E60000120F8BD3078400706D5606807210902E7
:100E70008843F1680843606000F028F86168094A17
:100E80000906090F515CC840074908600020FFF7B8
:100E9000CFFE0020F8BD00000020024000100240FC
:100EA0008813000053430008B0000020044805499F
:100EB00000684968044A4905490F515CC8407047B9
:100EC000B0000020001002406343000810B513A3D7
:100ED0000FCB88B06C460FC414A30FCB0FC41749B7
:100EE0004B680C201A4602401548042A13D0082AE1
:100EF00011D19A02120F6C46A45CC96A04AA0907B0
:100F0000090F525CD903890F00231946FFF702F934
:100F1000214601F0BEFB08B010BD0000020304052D
:100F2000060708090A0B0C0D0E0F1010010203042E
:100F300005060708090A0B0C0D0E0F1000100240E1
:100F400000127A00FEB5040071D02078DC4DC00795
:100F500049D068680007800F012820D06868000722
:100F6000800F022804D16868C003800F022816D0C1
:100F7000012062680004012A18D08100002A01D0F3
:100F8000052A17D02A6882432A6028688843286087
:100F9000606800281BD0FFF72DFE064613E0286886
:100FA000800320D560680028CED01CE0296801436A
:100FB0002960EDE72A680A432A60F7E7FFF71AFE7F
:100FC000801B642870D828688003F7D50BE0FFF7F2
:100FD00011FE064604E0FFF70DFE801B6428F1D8E1
:100FE00028688003F7D420780126800700283EDA9D
:100FF00068680007800F13D068680007800F022818
:1010000004D16868C003800F012809D0E068002877
:1010100028681DD030432860FFF7ECFD07460CE040
:10102000286880070CD5E068012800D108E043E17A
:10103000FFF7E0FDC01B0228C4D828688007F7D559
:101040002868F82188432169C900084328600EE018
:10105000400840002860FFF7CDFD074604E0FFF799
:10106000C9FDC01B0228ADD828688007F7D42078B6
:10107000000722D5E0690028686A0ED03043686214
:10108000FFF7B8FD074604E0FFF7B4FDC01B0228D8
:1010900098D8686A8007F7D50FE04008400068627A
:1010A000FFF7A8FD074605E09DE0FFF7A3FDC01B85
:1010B000022887D8686A8007F7D420780427400779
:1010C000002860DA00200190E869C00008D4E969CE
:1010D000B8060143E961E9690140012000910190EE
:1010E00078480168C90511D401688215114301606F
:1010F000FFF780FD009005E0FFF77CFD0099401AA6
:10110000642870D86F480068C005F5D5A06801282C
:101110000AD0002801D0052810D0286A40084000D5
:101120002862286AB84301E0286A30432862A06830
:10113000002812D0FFF75EFD00900AE0286A3843CD
:101140002862F1E7FFF756FD0099411A5E48814297
:1011500049D8286A8007F5D50DE0FFF74BFD0090D0
:1011600006E0FFF747FD0099411A574881423AD8F7
:10117000286A8007F5D40198002804D0E869012185
:1011800009078843E8612078C00635D560690128E1
:101190000CD0401D686B23D038436863686B4008EF
:1011A00040006863FFF726FD064622E0686B38437F
:1011B0006863686B30436863FFF71CFD064604E014
:1011C000FFF718FD801B02285BD8686B8007F7D5F6
:1011D000686BF8218843A169C900084368630BE084
:1011E000B8436863F4E74CE0FFF704FD801B022876
:1011F00047D8686B8007F7D4206A00285ED06968FA
:101200000907890F022942D00126360602282868DC
:1012100005D0B0432860FFF7EDFC044633E0B0434F
:101220002860FFF7E7FC074604E0FFF7E3FCC01B7C
:10123000022826D828688001F7D4E86AE16A000904
:1012400000010843E862616AA06A084369687B227A
:10125000D203914308436860286830432860FFF751
:10126000C9FC044604E0FFF7C5FC001B022808D8AF
:1012700028688001F7D521E0FFF7BCFC001B02289D
:1012800001D90320FEBD28688001F5D416E00128AD
:10129000F8D06868E96A0322D203636A02409A427E
:1012A0000AD10907E26A090F914205D10F21890489
:1012B0000840A16A884201D00120FEBD0020FEBD89
:1012C000001002400070004088130000094910B56A
:1012D000401E884201D9012010BD074C60610321E6
:1012E000081F01F0FBF90020A06107202061002009
:1012F00010BD0000FFFFFF0000E000E070477047F6
:10130000F0B502462032137F012B1ED00125157740
:101310000223537706687468B3687027BC430F686C
:101320002743776000680A4CA04205D0094CA042D0
:1013300002D0094CA04204D180244968A343194338
:101340008160557700201077F0BD0220F0BD0000CD
:10135000002C0140000400400040014070B5040032
:1013600005D025462035687F002802D006E0012000
:1013700070BD00202877204600F00AF80220687728
:10138000211D206800F09CFE01206877002070BDC0
:1013900008B50068094988420FD10948C26902218D
:1013A0000A43C261C0690022084000901146102023
:1013B000FFF780FC1020FFF771FC08BD000400401F
:1013C000001002400268D36801210B43D36000681B
:1013D00082685207520F062A02D002680A4302604E
:1013E00000207047F8B5054604462035287F0128BF
:1013F00017D001262E770220687722689068772719
:10140000FF23B8431B02984390600A68502A31D0EA
:101410000EDC202A4BD006DC002A48D0102A3AD114
:1014200045E00220F8BD302A41D0402A33D136E0D1
:10143000602A27D0702A12D001200003121A2AD065
:10144000824228D1CB684A688968206800F07CFE17
:101450002068816801229203114381601BE0CB6800
:101460004A688968206800F06FFE21688868384300
:10147000886010E0CA684968206800F078FE502152
:10148000206806E0CA684968206800F081FE602193
:10149000206800F064FE6E7700202877F8BDCA68E7
:1014A0004968206800F063FE40212068F1E711469A
:1014B0002068EEE7704770B50446006801690025B2
:1014C000C9438907002915DBC168C943890711D4BD
:1014D000E91E01610120207720688069800720468D
:1014E00002D0FFF7E7FF04E000F096F8204600F096
:1014F00094F8257720680169C943490717D4C16862
:10150000C943490713D40421C9430161022020774C
:10151000206880698005800F204602D0FFF7CAFF4F
:1015200004E000F079F8204600F077F8257720688D
:101530000169C943090716D4C168C943090712D410
:101540000821C9430161042020772068C069800711
:10155000204602D0FFF7AEFF04E000F05DF8204621
:1015600000F05BF8257720680169C943C90617D4E4
:10157000C168C943C90613D41021C94301610820B9
:1015800020772068C0698005800F204602D0FFF7D1
:1015900091FF04E000F040F8204600F03EF8257787
:1015A00020680169C943C90708D1C168C943C9078F
:1015B00004D1891E0161204600F030F820680169DD
:1015C000C943090609D4C168C943090605D4802165
:1015D000C94301612046FFF791FE20680169C943B4
:1015E000490609D4C168C943490605D44021C94305
:1015F0000161204600F05EF820680169C943890650
:1016000009D4C168C943890605D42021C9430161B1
:101610002046FFF774FE70BD70477047F8B500684C
:101620001C49884221D11C4C2068401C20601B486A
:1016300001881B4A914202D20188491C0180012184
:1016400089031848FFF7CAFA174E0127002500281A
:101650000CD065603560012149031248FFF7BEFADE
:10166000124E00280CD0A5603560F8BD60681049A6
:10167000401C6060FEF738FD0029ECD13760EAE7D6
:10168000A0680B49401CA060FEF72EFD0029ECD19C
:101690003760F8BD000400409000002002000020E8
:1016A0001027000000040048880000208C00002063
:1016B00040771B0070477047F8B502680446D06950
:1016C000116893684C4D06462E402025002E68D0A8
:1016D000DE07F60FFF2721370F40374375D0C707C6
:1016E00006D0CF0504D501271762E26F3A43E267BF
:1016F000820708D5DA0706D0276802223A62E26F2D
:1017000004273A43E267420708D5DA0706D0236880
:1017100004221A62E26F02231A43E267020709D524
:101720000A462A40324305D0236808221A62E36F32
:101730001343E367020508D54A0106D50122236851
:10174000D2021A62E26F2A43E267E26F002A30D0C7
:10175000800606D5880604D5216E002901D02046D2
:101760008847E06F21688968490602D42821084229
:1017700024D0204600F0BEFD20688168490619D5B6
:101780008168402291438160E06E002812D01B499D
:101790004163E06EFFF748F900280AD0E06E416B24
:1017A00006E0830611D58B060FD5216E12E0204688
:1017B0008847F8BD2046FFF77EFFF8BD2046FFF7BB
:1017C0007AFF0020E067F8BDFFE7030605D50B06AA
:1017D00003D5616E0029EAD1F5E74006F3D5480646
:1017E000F1D51168204640239943116065670021B7
:1017F000616600F01EFAE6E70F080000E12200082B
:1018000010B5040003D0606F002802D007E001206B
:1018100010BD002170200155204600F027F824203B
:10182000606720680168490849000160204600F0AF
:10183000C9FD0128ECD0606A002802D0204600F0E3
:10184000BAFC206841680122D202914341602068BD
:101850008168082291438160206801680122114358
:101860000160204600F00CFD10BD0000F0B587B00F
:10187000044614216846FEF795FC434A0121266878
:101880000023424889040225032496421DD186691B
:101890000A111643866186691640059642690A4315
:1018A00042614069029308400590C020009069465B
:1018B0000195039404933648FFF7ECF80022114693
:1018C0001B20FFF7F7F91B2022E0324F01225204C0
:1018D000BE4221D1C1691143C161C1691140059165
:1018E00041691143416140690195104005900C2008
:1018F0000090012004900920039402936946C006D9
:10190000FFF7C8F8002211461C20FFF7D3F91C206E
:10191000FFF7C4F907B0F0BD1F4FBE4216D1C26930
:101920000A43C261C2690A40059242690A434261A0
:101930004069019508400590032080020090042032
:101940000490039402936946114819E013498E42AA
:10195000E0D1C6690121C9040E43C661C6690E40C3
:10196000059641691143416140690094104005901A
:101970000420049009200195039402936946C0064F
:10198000FFF788F8C6E70000003801400010024069
:10199000000400480044004000480040004C004063
:1019A000F0B5836F202B54D100290AD0002A08D02B
:1019B0008568DC01A54206D10369002B03D1CB0762
:1019C00001D00120F0BD034660331E7C012E40D0C3
:1019D00001261E744165014640310A834A83002274
:1019E000FF260266A54204D10569002D13D11A4DC8
:1019F0000AE07F27002D09D001263607B5420CD119
:101A00000569002D05D03F258D8307E00569002D70
:101A100001D08F8302E08E8300E08A83C267222197
:101A2000816701688D68012635438D608168A14218
:101A300002D1016900290AD0084901661A740068B8
:101A40000168FF222132114301600020F0BD0449EA
:101A5000F3E70220F0BD0000FF0100006D23000845
:101A60001523000810B5214988421AD11F480122C8
:101A70001F49983802F01AFA002802D11DA000F080
:101A8000B7FD01221A491948FFF78AFF01002BD040
:101A90001EA000F0ADFD1649012048600246134823
:101AA00020E01249803988421ED111490F48012295
:101AB000491C8C3802F0FAF9002802D11BA000F072
:101AC00097FD0B4909480122491C8038FFF768FF40
:101AD000010009D01BA000F08BFD0549034801223D
:101AE000491C8038FFF75CFF10BD0000480A002049
:101AF0009C000020756172743220777269746520D1
:101B0000627566206661696C2E0D0A0075617274DB
:101B100032207265637620627566206661696C2C7E
:101B20007265743A25642E0D0A00000075617274A6
:101B30003120777269746520627566206661696C10
:101B40002E0D0A0075617274312072656376206211
:101B50007566206661696C2C7265743A25642E0D79
:101B60000A000000FFB50446406F83B017460D46DB
:101B700020285CD1002D0AD0002F08D0A168C00118
:101B8000814207D12069002804D1E80702D0012052
:101B900007B0F0BD204660300290007C012846D09E
:101BA0000298012101740020E06721206067FFF79F
:101BB00021F8264640360190378277820120A168BD
:101BC0000003814202D12069002802D02F4600255F
:101BD00011E000270FE000228021204600F0AAFC3F
:101BE000002815D1002F15D02168387808857F1C72
:101BF000708A401E7082708A019B002806980090AF
:101C0000E9D100224021204600F094FC002808D0B1
:101C10000320BDE728882168C005C00D0885AD1CDC
:101C2000E6E720206067029900200874B0E70220F0
:101C3000AEE77047FEE710B504468189806801224F
:101C4000FEF7D1FFA18801222068FEF7CCFF10BD6E
:101C500070B50E46044600F0E5F9A1890022A0689F
:101C6000FEF7C1FF00253006A188206801D50122BA
:101C700000E00022FEF7B7FF7006060E00F06BF8DA
:101C8000A1890122A068FEF7AEFF00F064F8A189E7
:101C90000022A068FEF7A7FF00F05DF86D1CEDB212
:101CA000082DE0D3204600F03BF870BD10B5044687
:101CB000818800680122FEF796FFA1890122A068B1
:101CC000FEF791FF00F047F8A18800222068FEF798
:101CD0008AFF00F040F8A1890022A068FEF783FF88
:101CE00000F039F810BD10B50446818980680022E3
:101CF000FEF779FFA18800222068FEF774FF00F04C
:101D00002AF8A1890122A068FEF76DFF00F023F8F0
:101D1000A18801222068FEF766FF00F01CF810BDC4
:101D200010B50446818980680022FEF75CFFA18817
:101D300000222068FEF757FF00F00DF8A18901226C
:101D4000A068FEF750FF00F006F8A1890022A06805
:101D5000FEF749FF10BD0020401C80B2C828FBD30D
:101D6000704700000EB500212248009101910291B8
:101D70001F4A416002608160012204230C300EC0C2
:101D8000017041708170FF23C270C233436003460B
:101D900081600833197102611838FEF75FFD002871
:101DA00001D0FEF7D1FC0520009001200003019036
:101DB0000004029069460F48FEF7C8FC002801D0D5
:101DC000FEF7C2FC0620009069460A48FEF7BEFCFA
:101DD000002801D0FEF7B8FC1020009069460548A5
:101DE000FEF7B4FC002801D0FEF7AEFC0EBD0000EB
:101DF00000240140D8060020F0B587B014216846C1
:101E0000FEF7D0F92B484269012189050A43426156
:101E100042690A400592426949110A434261426996
:101E20000A400592426949000A4342614069092615
:101E30000840F606059000221F493046FEF7D3FE03
:101E40001F4F00221D493846FEF7CDFE1D480024D5
:101E50000125009002946946019503943046FEF7EF
:101E600019FE03204003009001946946029438460D
:101E7000FEF710FE14480090029469460195039401
:101E80003846FEF707FE0320C00211250090029499
:101E90006946019503943046FEF7FCFD03200002DD
:101EA000009002946946019503943846FEF7F2FDCE
:101EB00007B0F0BD00100240109F00003883000002
:101EC00000040048108700003880000010B586B07C
:101ED0000024009417480194029403940494144934
:101EE000059401602021846041607D210461C90066
:101EF0008461C160FFF732FA002801D0FEF724FCAC
:101F000001200003009069460A48FFF76BFA002899
:101F100001D0FEF719FC049404A906480594FFF7C4
:101F2000EFF9002801D0FEF70FFC06B010BD00004D
:101F3000000400401807002010B50E480C4901604D
:101F40004B21490141600121090381600122920274
:101F500002610021C1608161C1610C2201624261A4
:101F60004162FFF74DFC002801D0FEF7EDFB10BDEC
:101F700000380140C809002010B50C480A4901602A
:101F8000E1214902416000218160C16001618161FC
:101F9000C1610C22016242614162FFF731FC0028FD
:101FA00001D0FEF7D1FB10BD00440040480A0020DC
:101FB00010B50C480A490160E12149024160002145
:101FC0008160C16001618161C1610C220162426175
:101FD0004162FFF715FC002801D0FEF7B5FB10BDEC
:101FE00000480040C80A002010B50C480A490160AA
:101FF000E1214902416000218160C160016181618C
:10200000C1610C22016242614162FFF7F9FB0028C5
:1020100001D0FEF799FB10BD004C0040480B00209A
:102020007047704700B585B081880091012101910A
:1020300000210291039100686946FEF72BFD05B06F
:1020400000BD704710B5FEF7DBFD10BD70B594B054
:1020500030216846FEF7A6F8002401250F941220CF
:102060000595009010200E941094139406900490FF
:10207000C0020D940990129400010C94039502265D
:102080000A90119408960B946846FEF75BFF0720B0
:102090000C900E9401210D960F940CA8FEF782FE71
:1020A00010A810951294FEF709FE14B070BD704789
:1020B00010B50248FFF7FFF910BD00001807002017
:1020C000F0B502681A4B1B4C984201D0A04203D1D4
:1020D0007025AA434D682A43174D184E184F984251
:1020E0000AD0A04208D0174CA04205D0A84203D085
:1020F000B04201D0B84205D11446032212029443E3
:10210000CA6822438024A2434C69224302608A6841
:10211000C2620A688262984205D0A84203D0B042E7
:1021200001D0B84201D10969016301214161F0BDCB
:10213000002C0140000400400040014000440140E8
:10214000004801400020004030B58468FF252D0282
:102150001B021343AC430B432343836030BD8268AF
:1021600070239A430A4307210A438260704730B5BF
:10217000036A046A6408640004628469F025AC435D
:10218000120122430A24A3430B438261036230BD40
:1021900030B5036A1024A34303628469036A0F25E0
:1021A0002D031203AC432243A024A3430901194386
:1021B0008261016230BD10B5818CC90707D001680A
:1021C0004A6801235B049A43836A1A434A60818CFC
:1021D000890707D501684A6801231B049A43C36A2B
:1021E0001A434A60818C490707D501684A68012370
:1021F0009B049A43036B1A434A60818C090707D5F5
:1022000001684A680123DB039A43436B1A434A601F
:10221000818CC90607D50268916801231B03994385
:10222000836B19439160818C890607D501688A68A0
:1022300001235B039A43C36B1A438A60818C49066E
:1022400012D503685A6801210905046C8A432243A8
:102250005A60026C8A4207D10268516803235B0509
:102260009943436C19435160818C090607D5016875
:102270004A680123DB04806C9A4302434A6010BD24
:10228000F8B500260446C667FEF7B4FC054620688C
:102290000068124F000709D501212B46002249058D
:1022A0002046009700F046F900280DD1206800680C
:1022B00040070BD501212B460022890520460097B7
:1022C00000F038F9002801D00320F8BD2020606715
:1022D000A067603426740020F8BD0000FFFFFF01F6
:1022E00010B5406A0022014640314A834A82FFF716
:1022F000E2F910BD01680A68FF2321339A430A609E
:1023000001688A68520852008A6020218167002192
:102310000166704710B5014640318B8B846F0268AF
:10232000222C04D0906908210843906110BD928C42
:10233000446D1A402280426D921C42654A8B521EA7
:102340004A83498B0029F1D101680A68FF232133B0
:102350009A430A6001688A68520852008A60202104
:10236000816700210166FFF77DFB10BD10B50146B6
:1023700040318B8B846F0268222C04D09069082135
:102380000843906110BD928C1A40436D1A70426DE3
:10239000521C42654A8B521E4A83498B0029F1D157
:1023A00001680A68FF2321339A430A6001688A683A
:1023B000520852008A602021816700210166FFF7E0
:1023C00051FB10BD70B5044680682169E26908437D
:1023D000616900251143084321680A684A4B1A4085
:1023E00002430A6021684868032212039043E268AE
:1023F00010434860A169206A2268084391680B2352
:102400001B0299430143916040492068884210D1E2
:102410003F48006B8007800F1DD0012805D002289F
:1024200005D0032816D1022015E0042013E008206F
:1024300011E0384988420BD03749884208D03749E3
:10244000884205D03649884202D03649884201D1B7
:10245000002000E010200122E169D203324E9142B7
:1024600028D1002806D0022807D0042817D0082831
:1024700044D11AE0FEF71AFD13E061682B4A4808C0
:102480008018FDF731FE80B201461039B14235D8CF
:102490002549491C01400007400F084321E0FEF791
:1024A00015FD616840004A08EAE7616801224808B2
:1024B0001204E5E7002806D0022807D0042813D02C
:1024C00008281BD116E0FEF7F1FC0FE06168184AFE
:1024D000480811E0FDF708FE80B201461039B1420C
:1024E0000CD82168C8600AE0FEF7F0FC61684A0871
:1024F0001018EFE7616848088018EBE70125002015
:1025000020666066284670BDF369FFEF0038014021
:10251000001002400044004000480040004C0040D1
:102520000050004000140140EFFF00000024F400C0
:1025300000127A00FFB581B005460F4604466035AB
:102540000A9E38E0701C36D0FEF754FB0499401AFE
:10255000B04221D8002E1FD02068016849072AD533
:10256000C069C043000526D401202168C00208626A
:1025700020680168FF22A1329143016020688168D0
:1025800049084900816020206067A067E06700205B
:102590002874032005B0F0BD20680168FF22A13235
:1025A00091430160206881684908490081602020CA
:1025B0006067A067EBE72068C1693846884305D0AB
:1025C000002103988142BDD00020E3E70121F8E714
:1025D00010B50248FFF770F810BD0000C8090020D0
:1025E00010B50248FFF768F810BD0000480A002047
:1025F0000FB410B503A9044B044A029800F04CF93B
:1026000010BC08BC04B01847C93D0008B400002045
:102610000FB41CB50A46521E0192009007A9064B42
:102620006A46069800F038F9009A002111701CBC27
:1026300008BC04B018470000D12F00080FB410B533
:1026400004A9074B02AA039800F026F9044602A940
:10265000002000F0C8FC204610BC08BC04B018479D
:10266000E72F00082021020C01D010211046020A99
:1026700001D010460839020901D01046091F82080E
:1026800001D01046891E420801D0881E7047081AE2
:102690007047F8B5040C8BB2264682B25E430D0C2F
:1026A0001046370C584336048019002179411646EC
:1026B0006E43370C36048019794126466E438919DA
:1026C000F8BD30B47446641E2578641CAB4200D259
:1026D0001D46635D5B00E31830BC18478307FF228B
:1026E000DB0E9A408907090E9940002808DB830811
:1026F00009489B001B1818689043084318607047EE
:102700000007000F0838830804489B001B18D8698D
:1027100090430843D861704700E400E000ED00E01A
:1027200002E008C8121F08C1002AFAD1704770479A
:10273000002001E001C1121F002AFBD170470000F8
:10274000F0B51FB484B007980699020D014314D068
:102750004A484B491018484305140F9801280E9811
:102760001CD0281A401C0024464E47490094019171
:102770000290002814DA474227E00F98012443A36F
:10278000012808D0002104980F9A84600360C26079
:10279000416009B0F0BD0E98C143F4E74042E2E762
:1027A000074612E0F80707D0224633460199009801
:1027B000FDF7DEFE01910090224633461046194691
:1027C000FDF7D6FE04460E467F10002FEAD1029890
:1027D000019B0028009A0799069802DAFDF7C8FEC7
:1027E00001E0FDF7B7FD04460E460022284BFDF739
:1027F00047FF03D80020C043014607E00022254BD5
:1028000020463146FDF7F4FCFDF71AFF102409E0DD
:10281000002C0ADB0A220023FDF77CFC059B3032EA
:102820001A55641E02460A43F2D11122641C059B0C
:10283000121B1C190F9B012B03D0012308430ED13F
:102840000AE0084304D011200E9000200F9084E786
:102850000E98151A6D1E0BE00E98824202DD0023C1
:102860006D1C03E0824201DA00236D1E002BEED0C6
:1028700004980F998260C16030C08AE701FCFFFFB5
:10288000104D0000000024400000F03F3000000028
:102890000000F0430000E03FFFB597B0064600257A
:1028A00018E2252877D100242746FD49049400E04A
:1028B0000443761C32780120203A90400842F7D138
:1028C00030782A280ED00222307801463039092982
:1028D00016D804990A235943303940181443761CFA
:1028E0000490F1E7189802C804911890002904DABE
:1028F0000120400304434842049002200443761C14
:1029000030782E2814D1042004437078761C2A28AD
:1029100009D11898761C80C8189009E00A214F4305
:10292000303FC719761C3078014630390929F5D96E
:1029300030786C2810D006DC4C281AD068280ED0CD
:102940006A2817D104E0742813D07A2812D110E035
:102950000120400504430CE00121090501E00321A9
:1029600009050C437178814203D101200005241828
:10297000761C761C3078119066280BD013DC582812
:102980007DD009DC00287BD04528F6D04628F4D03D
:1029900047281AD1A5E118E0632835D0642870D003
:1029A000652812D19DE170286CD008DC6728F1D031
:1029B00069287BD06E280DD06F2806D1BAE0732825
:1029C0002ED0752871D0782859D01A9A1999904725
:1029D0006D1C7EE16002400F022809D003280DD053
:1029E0000428189801680DD00D60001D189070E142
:1029F0001898EA1701680D604A60F6E718980168B0
:102A00000D80F2E70D70F0E718986A4601781172B0
:102A1000001D18900020507202A80090012005E0CF
:102A2000189802C8189000200091C04361070DD586
:102A3000002101E00199491C0191B94212DA814259
:102A4000F8DB009A515C0029F4D10BE0002101E091
:102A50000199491C01918142FADB019A0099895C34
:102A60000029F5D1019904981A9B471A2146384646
:102A7000199A00F097FA0199401945180BE04FE0B8
:102A80002CE113E04EE0009800990078491C009179
:102A90001A9A199990470198401E0190401CF2D152
:102AA000214638461A9B199A10E137E00A20002186
:102AB000009001916002410F022907D0189A01CAC3
:102AC0001892C2179446032908D00AE01898C01D2E
:102AD000C108C90005C91891944607E000B2C217A1
:102AE0009446042902D140B2C1178C4600226146A7
:102AF000944506DA0A460021404291418C462D2138
:102B000002E0210504D52B216A461173012103E05F
:102B1000E10701D02021F7E7029155E00A200AE001
:102B2000102008E0102000900021042004430191AF
:102B3000082703E008200021019100906002410F66
:102B4000022907D0189A01CA189200229446032934
:102B500008D008E01898C01DC108C90005C918911F
:102B6000944603E080B2042900D1C0B20021029152
:102B7000210729D51199702906D0009A1021019BAF
:102B80004A401A4305D00EE040216A4611730121E4
:102B900008E06146014306D030216A46117311995D
:102BA000517302210291009A0821019B4A401A4365
:102BB0000AD16146014301D1610705D530216A463A
:102BC000117301217F1E02911199582904D035A15A
:102BD0000E910DA90D910DE037A1F9E76146019B1A
:102BE000009AFDF797FA0E9B8C469B5C0D9A521E3D
:102BF0000D92137061460143F0D10D9805A9081A92
:102C000020300190600703D501200004844300E0D8
:102C100001270198874201DD381A00E00020019960
:102C200000904118029809180498401A0490E00393
:102C300006D421461A9B199A049800F0B3F9451955
:102C4000002706E003A81A9AC05D199990476D1CE9
:102C50007F1C02988742F5DBE0030CD521461A9BC6
:102C6000199A049800F09EF9451904E01A9A302048
:102C7000199990476D1C0099481E00900029F5DCB9
:102C800008E00D980D990078491C0D911A9A199930
:102C900090476D1C0199481E01900029F1DC63E109
:102CA0000928010030313233343536373839616222
:102CB00063646566000000003031323334353637E6
:102CC00038394142434445460000000000F05AF9BB
:102CD0004519761C3078002800D0E2E528461BB064
:102CE000F0BD600700D406271898C01DC108C900B0
:102CF00048680A680831C30FDB071891190001D032
:102D00009CA108E0210501D59BA104E0E10701D0C9
:102D10009AA100E09AA1430011985B0810916528E0
:102D20000CD006DC452809D046281DD0472841D1C3
:102D300041E0662818D067283CD13CE00021112FE3
:102D400001DB112000E0781C0191009008A911A876
:102D5000FFF7F6FC139905910021119A15927F1C3B
:102D600012980197009150E00120C00703900120C4
:102D7000019008A9009711A8FFF7E2FC139A149993
:102D800005920022119B009212981593059A0192C8
:102D9000002901D0104602E0791C40180190381A31
:102DA00001D5019804E04042401E0090781C01903B
:102DB000C01B029043E0012F00DA01270021112FF0
:102DC00001DD112000E038460191009008A911A80A
:102DD000FFF7B6FC13990591119A002112981592EC
:102DE0000091019721070CD40599B94201DB0199A3
:102DF00000E00191012904DD159A491E515C30293A
:102E000006D0B84201DA011D05DA0121029115E070
:102E10000199491EEDE7002805DC00994118009151
:102E20000199091A03E0019A411C914200DD0191C8
:102E30000099401A401C02900120C007039020070F
:102E400006D402990198814202DB0020C04302901F
:102E500000206946C87707AF012103980337C907E7
:102E6000884224D0022011902B2012900398002831
:102E70000CDA404203902D20129007E00A210398BB
:102E8000FDF732F930317F1E039039701199481ED9
:102E900011900029F2DC03980028EFD1791E1298D6
:102EA00008703078202108404530BF1E387006A8D1
:102EB000C01BC01D039010980078002800D001208E
:102EC000019941180298C017091803980918049825
:102ED000401A401E0490E00306D421461A9B199A1A
:102EE000049800F05FF8451910980078002803D086
:102EF0001A9A199990476D1CE00324D521461A9B14
:102F0000199A049800F04EF845191CE00098002822
:102F100007DB00990598884203DD1598405C1999F4
:102F200001E0199930201A9A904700986D1C401CB6
:102F300000900298401E0290002804D11A9A2E2078
:102F4000199990476D1C0199481E01900029DDDCFC
:102F500005E038781A9A7F1C199990476D1C0399DF
:102F6000481E03900029F4DC21461A9B199A049804
:102F7000ACE600002D0000002B0000002000000047
:102F800000000000F8B5044600251E4617468804D8
:102F900004D405E039462020B0476D1C641EF9D5E5
:102FA0002846F8BDFFB50446002581B01E46C8037B
:102FB00001D5302700E02027880404D505E03846F5
:102FC0000399B0476D1C641EF9D5284605B0F0BDC5
:102FD0004A68002A06D00A68531C0B6010704868C3
:102FE000401E486070470A68531C0B6010707047A1
:102FF000F8B50446817A25A0FFF7FAFAA07A0125F0
:103000000924FF276D024138E406F5376E000300FE
:10301000FFF757FB06041122272D323A22A0FFF7B3
:10302000E7FA0122150229462046FDF7DCFD384665
:10303000FDF71EFD18E023A0FFF7DAFA0122284D64
:10304000D40321462846FDF7CEFD3846FDF710FD96
:1030500000222146284615E022A0FFF7C9FA0122E6
:1030600003E027A0FFF7C4FA0022294609E02BA0BD
:10307000FFF7BEFA012203E02FA0FFF7B9FA002202
:1030800031462046FDF7AFFDF8BD0000726563765E
:1030900020636C6F756420646174612C636D643AA5
:1030A000253032782E0D0A00746869732069732008
:1030B0006F70656E206C6F636B3120636D642E0DD5
:1030C0000A00000074686973206973206F70656E70
:1030D000206C6F636B3220636D642E0D0A0000005C
:1030E0000004004874686973206973206F70656E0E
:1030F0002072656C61793120636D642E0D0A0000C9
:103100007468697320697320636C6F7365207265DE
:103110006C61793120636D642E0D0A0074686973E7
:10312000206973206F70656E2072656C6179322042
:10313000636D642E0D0A0000746869732069732042
:10314000636C6F73652072656C61793220636D64A6
:103150002E0D0A008AB210B50146024B0248FEF756
:1031600001FD10BDFFFF0000480A002010B5044615
:10317000FDF737F882B2034B21460348FEF7F2FC15
:1031800010BD0000FFFF0000480A002001B5034BFE
:10319000012269460248FEF7E5FC08BDFFFF00007A
:1031A000480A002070B50D46044601461BA0FFF7F3
:1031B0001FFA1EA0FFF7DAFF6420FDF759FCAA20D2
:1031C000FFF7E4FF0020FFF7E1FF0420FFF7DEFF39
:1031D00004211A48FFF7BEFF2846FFF7D7FF00205B
:1031E000FFF7D4FF0020FFF7D1FF0020FFF7CEFF4D
:1031F0000120FFF7CBFF2046FFF7B8FF0020FFF7C5
:10320000C5FF0020FFF7C2FF1A20FFF7BFFF0D2008
:10321000FFF7BCFF0A20FFF7B9FF70BD73656E644E
:103220006275663A25732E0D0A00000041542B4347
:10323000495053454E440D0A000000007E00002016
:103240000E207047F3B58FB0002700240646FF43D9
:103250002546282101A800970C94FCF7A3FF0B97A3
:1032600014E06548E90041583046FCF7A6FF040029
:103270000BD06148EF00C15960A0FFF7B9F95E4873
:10328000C059FCF7AEFF041904E06D1CFFF7D8FF2E
:10329000A842E6DCFFF7D4FFA84201DC5BA029E0EE
:1032A00020783F2804D03D2810D03E2817D005E0D4
:1032B00061780D2902D1A1780A291ED031782B29F5
:1032C0001DD00D280FD0202819D00FE060783F289E
:1032D00005D1A0780D2802D1E0780A2801D0012478
:1032E0000EE003240CE060780A2806D00020C043DA
:1032F00000904BA0FFF77CF97CE0022400E004245E
:1033000021464CA0FFF774F9012712E078028019DA
:103310004DA10D90FCF751FF002801D0012006E0DF
:103320004AA10D98FCF749FF002801D000200B901E
:103330007F1C10988742E9DB2F48ED0028180D907C
:103340004068002856D0012C06D0022C04D0032C53
:1033500002D0042C2CD13CE0F01DFF30FA3000905C
:10336000FCF73FFF074624484059FCF73AFF401E50
:1033700087421DD320484059FCF733FF8019FF30A6
:10338000FF3001300E900098FCF72BFF07461A48DB
:103390004059FCF726FF391A0E98491C002807D01F
:1033A0000A20009001AB2C220E9800F01FFF0C9019
:1033B0000D980096456801AB20460C9A0B99A847DA
:1033C0000090401C16D023A0FFF712F9009811B00E
:1033D000F0BD09484059FCF704FF8019401C0E90CD
:1033E0003046FCF7FEFE074603484059FCF7F9FE5D
:1033F0003918D1E719A0E7E70C00002066696E6470
:1034000020636D643A25732E0D0A000066696E64B0
:10341000207461626C65206572726F722E0D0A00F5
:1034200066696E6420636D64206572726F722E0D22
:103430000A000000636D6420636C617373203A2599
:10344000642E0D0A000000004F4B00004552524F01
:10345000520000004F4B0D0A000000004552524F31
:10346000520D0A00F8B50022D243824F0025824C4B
:103470000092002910D06078002808D07FA0FFF7C4
:10348000B7F8A08861884002C019FFF7B1FD6570E8
:1034900065802570A58025E0A38876495E027218B4
:1034A00061885718203FFF7F874203D10D2819D02C
:1034B0000A2817D00A2F01D10D2813D0002903D1D3
:1034C0000D280FD00A280DD05054491C694F8AB2DC
:1034D0006280BE5D0121BB2E06D00A2808D02028BC
:1034E00006D0BEE00020F8BD01206170C043F8BDE9
:1034F0002678002EF5D0194666A0FFF779F8A08847
:1035000003264002395C7602412910D02B2919D0BC
:103510003E2922D04F2927D045292BD043293ED000
:10352000532955D043293ED0412904D074E0C21913
:103530005278542A04D0C21953784C2B5DD06BE0DA
:1035400059A06DE05BA0FFF753F8A088401C80B243
:10355000A080012869D15AA072E061A018E0454816
:10356000FFF770FE009074E0C21952784B2A53D1D5
:103570005EA00DE0C2195378522B4DD19378522B97
:103580004AD1D3784F2B47D11279522A44D15AA02D
:10359000FFF72EF8A088401C81B2A180DFE7C21996
:1035A00053784F2B04D0C21953784C2B1BD033E0E7
:1035B00093784E2B30D1D3784E2B2DD11379452BC8
:1035C0002AD15379432B27D19279542A2ED023E044
:1035D000C2195378452B1FD193784E2B1CD1D2782A
:1035E000442A23D018E093784F2B15D1D378532B4E
:1035F00012D11279452A19D00EE09378522B0BD1B3
:10360000D378452B08D11379412B05D15379442B1D
:1036100002D19279592A09D03039092914D83AA00F
:10362000FEF7E6FFA088401CA08017E03BA0FEF755
:10363000DFFFA088401C80B2A08001280ED13DA0F1
:10364000FEF7D6FFA1888AE7C1190A4640A0FEF717
:10365000CFFFA58031460748FCF7A4FD25706580A3
:1036600004E00D2804D03E2802D025700098F8BD53
:103670002170FBE7D80000208200002070726F6389
:1036800065737320636C6F756420646174612E0DC3
:103690000A000000636E743A25642C696E646578D4
:1036A0003A25642E0D0A000066696E642041542E8E
:1036B0000D0A000066696E64202B2E0D0A000000C2
:1036C00074686973207061737369766520726563CD
:1036D000656976696E6720646174612E0D0A000069
:1036E00066696E64203E2E0D0A00000066696E64F5
:1036F000204F4B2E0D0A000066696E642045525221
:103700004F522E0D0A00000066696E6420612D7A0A
:103710002F412D5A2F302D392E0D0A0066696E6407
:1037200020736F636B6574206576656E742E0D0A69
:10373000000000007468697320736F636B65742008
:103740006576656E7420646174612E0D0A00000058
:103750006572726F7220646174613A25735B3078B0
:10376000253032785D2E0D0A0000000010B50246AB
:1037700000E0521C107800F03AFB0028F9D11178D3
:10378000521C0C462D2901D02B2901D11178521C35
:10379000002305E00A2043435B181178521C303B9C
:1037A000084600F01DFB0028F4D12D2C01D018464E
:1037B00010BD584210BD000010B50349012008702B
:1037C00002A0FFF7D3FC10BD7C00002041542B4722
:1037D000534E0D0A0000000010B51C4606CC0BA08D
:1037E000083CFEF705FF6068FFF7C0FF012807D01F
:1037F0007D20C000FDF73CF908A0FFF7B7FC10BD25
:1038000009A0FEF7F5FE17A0F7E7000063677265F1
:10381000673A25732C25732E0D0A000041542B4363
:10382000475245473F0D0A00546865206E6574771E
:103830006F726B20697320776F726B696E672E20D1
:10384000537461727420636F6E6E656374696E6722
:1038500020746F2074686520636C6F75642E0D0A88
:103860000000000041542B43495053544152543DF1
:1038700022544350222C223132302E32342E313415
:10388000392E313133222C2237303731220D0A00C4
:1038900010B50C460B460246064907A0FEF7A8FEE7
:1038A000002C05D10AA0FEF7A3FE0EA0FFF75EFCD8
:1038B00010BD000004430008257320636D643A25A1
:1038C000642C726573756C743A25640D0A000000EF
:1038D00073656E64206661696C2C72657472792EF2
:1038E0000D0A000041542B434950534855540D0ACA
:1038F0000000000010B50B460246044904A0FEF784
:1039000077FE09A0FFF732FC10BD0000404300081D
:10391000257320636D643A25642C726573756C742D
:103920003A25640D0A00000041542B43495053547A
:103930004152543D22544350222C223132302E32F7
:10394000342E3134392E313133222C223730373175
:10395000220D0A0010B50B460246024902A0FEF7EE
:1039600047FE10BD2B430008257320636D643A2584
:10397000642C726573756C743A25640D0A0000003E
:1039800010B502990EA0FF31FF3102310C46FEF74F
:103990002FFE11A12046FCF710FC002804D010A037
:1039A000FEF726FE16A007E018A0FEF721FE7D20F8
:1039B000C000FDF75DF81CA0FFF7D8FB10BD0000AC
:1039C00073696D2063617264207374617475733AF6
:1039D00025730D0A000000005245414459000000C3
:1039E0006765742073696D20636172642073756309
:1039F000636573732C676574206373712E0D0A0001
:103A000041542B4353510D0A000000006765742098
:103A100073696D2063617264206661696C2C7265E4
:103A20007472792E0D0A000041542B4350494E3FC9
:103A30000D0A000010B51868FFF798FE044601460D
:103A400008A0FEF7D5FD0A4844700B3C142C01D2A7
:103A500008A004E07D20C000FDF70AF808A0FFF7E9
:103A600085FB10BD6373713A25642E0D0A000000BA
:103A70007C00002041542B43475245473F0D0A002C
:103A800041542B4353510D0A0000000010B5029918
:103A90001CA0FF31FF3102310C46FEF7A9FD0020CA
:103AA000401C0F28FCDB0AD019A0FEF7A1FD7D20E9
:103AB000C000FCF7DDFF1CA0FFF758FB10BD1DA0E8
:103AC000FEF796FDE179207A0901411822480A188B
:103AD00022490A70637AA27A1B01D21812184A701E
:103AE000E37A227B1B01D21812188A70637BA27BB7
:103AF0001B01D2181018C87019A0FEF779FD1CA080
:103B0000DAE70000696D65693A25730D0A00000067
:103B100067657420696D6569206661696C2C7265E2
:103B20007472792E0D0A000041542B47534E0D0A32
:103B30000000000067657420696D65692073756316
:103B4000636573732C6765742073696D206361729C
:103B5000642E0D0A00000000D0FCFFFF7E00002054
:103B600064657649643A253038782E0D0A000000E5
:103B700041542B4350494E3F0D0A000010B50B46EF
:103B80000246044904A0FEF733FD09A0FFF7EEFA50
:103B900010BD000017430008257320636D643A25AB
:103BA000642C726573756C743A25640D0A0000000C
:103BB00041542B434950534855540D0A000000000E
:103BC00000B50B4602469BB00E490FA0FEF710FD54
:103BD000642102A8FCF7E6FA1148C27881780091C6
:103BE0000192437802780FA102A8FEF727FD02A9EF
:103BF00019A0FEF7FDFC002102A8FFF7D3FA1BB0C5
:103C000000BD0000ED420008257320636D643A2575
:103C1000642C726573756C743A25640D0A0000009B
:103C20007E0000207B226465766963655F7479702D
:103C300065223A2230303034222C20225555494416
:103C4000223A2225303278253032782530327825D4
:103C5000303278227D00000073656E644275663AEA
:103C600025732E0D0A00000010B50B4602460449CC
:103C700004A0FEF7BDFC09A0FFF778FA10BD000014
:103C8000D8420008257320636D643A25642C726560
:103C900073756C743A25640D0A00000041542B437F
:103CA000495053544152543D22544350222C223106
:103CB00032302E32342E3134392E313133222C220F
:103CC00037303731220D0A0000B50B4602469BB053
:103CD0000E490FA0FEF78CFC642102A8FCF762FAE3
:103CE0001148C278817800910192437802780FA13F
:103CF00002A8FEF7A3FC02A919A0FEF779FC002197
:103D000002A8FFF74FFA1BB000BD0000AD4200084B
:103D1000257320636D643A25642C726573756C7429
:103D20003A25640D0A0000007E0000207B226465B5
:103D3000766963655F74797065223A223030303479
:103D4000222C202255554944223A2225303278250A
:103D50003032782530327825303278227D000000EC
:103D600073656E644275663A25732E0D0A00000075
:103D700010B50B460246024902A0FEF739FC10BD01
:103D8000C4420008257320636D643A25642C726573
:103D900073756C743A25640D0A00000010B50B466B
:103DA0000246024902A0FEF723FC10BD984200081B
:103DB000257320636D643A25642C726573756C7489
:103DC0003A25640D0A00000008B569460870022310
:103DD00001220248FDF7C6FE08BD0000C80A002007
:103DE0003038092801D8012070470020704720286A
:103DF0000BD0092809D00A2807D00C2805D008289C
:103E000003D00D2801D000207047012070470288A0
:103E10004188002807D08A4201D9501A02E08088E0
:103E2000401A801880B270471EB500236C4623806C
:103E30006380A28002910ECC0EC01EBDF0B5144668
:103E40000D46034600F023F8002B0ED09968002998
:103E50000BD0002D09D0002807D0002C05D0A0429F
:103E600000D32046002214460EE00020F0BD198841
:103E70009E684F1C1F80715CA95419889E88B142AE
:103E800000D11C80521C92B28242F0D3F0BD028855
:103E90004188002803D08A4203D8881A04E0808829
:103EA00070478088801A401880B27047F0B5144679
:103EB00003000D460AD09868002807D01846FFF77F
:103EC000A6FFA04200D92046002110E00020F0BD4E
:103ED0005A882C78571C9E685F80B4545A889C88F6
:103EE0006D1CA24201D100225A80491C89B2814234
:103EF000EED3F0BDFFB000208FB00490054604461D
:103F0000FF2102908D3105A8FCF74CF9FCF780FEEB
:103F1000FEF79CF8FDF770FFFDF724FFFEF70CF8A5
:103F2000FEF72AF8FEF744F8FEF75EF8FDF7CEFF3D
:103F30006DA0FEF75DFB7048FDF744FAFCF7C6FB89
:103F4000FCF7EAFB342181A8FCF72CF96BA0FFF702
:103F50000DF96C4F002069460873012203A96A48D5
:103F6000FFF76CFF002809D068460021007BFFF7AF
:103F700079FAFCF73FFE049001200290FCF73AFE2C
:103F80000499401AC8280CD90298012809D15FA0C9
:103F9000FEF72EFB68460121007BFFF763FA002045
:103FA00002905E48007800280DD15D493868FCF722
:103FB0009BF8002907D15BA0FEF71AFB4FA0FFF783
:103FC000D5F800F03DF95B493868FCF78DF8002919
:103FD00016D1642168A8FCF7E5F857A0FEF708FBA6
:103FE0005B480068FCF72EFA0090019159485AA1ED
:103FF000027868A8FEF722FB922168A8FFF7D2F8A2
:10400000012189036248FCF7E9FD0646B54219D053
:10401000142168A8FCF7C6F835465EA0FEF7E8FA5A
:1040200061480068002801D0032302E0002D1FD062
:1040300002235EA2142168A8FEF7EAFA902168A87C
:10404000FFF7B0F8012149035148FCF7C7FD0646C8
:10405000B4421BD0142168A8FCF7A4F834464DA044
:10406000FEF7C6FA50484068002803D0032304E056
:104070000123DEE7002C2CD0022350A2142168A8D3
:10408000FEF7C6FA902168A8FFF78CF84F49386808
:10409000FCF72AF8002900D05CE7282168A8FCF783
:1040A00081F841484168012915D0002C15D0022122
:1040B00000910068012812D0002D12D0022344A2E2
:1040C000282168A8FEF7A4FA902168A8FFF76AF8EB
:1040D00040E70123D1E70321EAE70121E8E70323D1
:1040E000EDE70123EBE7000068656C6C6F20776FEC
:1040F000726C642E0D0A00001807002041544531EF
:104100000D0A000090000020B0090020726563765F
:104110002074696D656F75742E0D0A007C00002097
:10412000B80B000073656E642061746520636D6474
:104130002E0D0A003075000073656E6420486561BD
:1041400072744265617420636D642E0D0A00000074
:10415000080000207D0000207B22486561727442C7
:10416000656174223A22353230222C227369676EDF
:10417000616C223A222564222C2254656D7065728E
:104180006174757265223A2225302E3166227D00D7
:104190000004004873656E64206C6F636B20636D70
:1041A000642E0D0A00000000880000207B226C6F46
:1041B000636B31223A222564227D00007B226C6FE2
:1041C000636B32223A222564227D000060EA0000FF
:1041D0007B226C6F636B31223A222564222C226C85
:1041E0006F636B32223A222564227D00F0B50024F1
:1041F000944605462646002905D00598002802D099
:1042000001201D6019E00020F0BD2A5D624509D142
:1042100000272F55002E03D02A1986009A51401CE2
:10422000012609E0002E07D02F1982009F50059A21
:104230000026401C9042E7D2641C8C42E5D3F0BDBE
:104240003EB5FF252D352A4610496846FFF7ECFD9F
:104250006B4607CB0E4C2346583307C3204601223A
:104260000C49F030FDF79CFB21462A46D4396846BC
:10427000FFF7DAFD6B4607CB643407C4054901221A
:10428000491C2046FDF78CFB3EBD0000580700206E
:10429000580900209C0000206465616C5F736F63A7
:1042A0006B5F73746172745F66756E6300646561E1
:1042B0006C5F736F636B5F636F6E6E6563745F6675
:1042C000756E63006465616C5F736F636B5F7365CC
:1042D0006E645F66756E63006465616C5F736F63C7
:1042E0006B5F636C6F73655F66756E6300646561B9
:1042F0006C5F736F636B5F616C72656164795F663D
:10430000756E63006465616C5F6369705F73656E91
:10431000645F66756E63006465616C5F7064705F96
:1043200064656163745F66756E63006465616C5F8C
:104330006369705F7374617475735F66756E630033
:104340006465616C5F6369705F736875745F6675DF
:104350006E6300000000000000000001020304067C
:104360000708090000000001020304004154453120
:1043700000000000434C4F534544000041542B4380
:10438000495053454E44000053454E440000000040
:1043900041542B43475245470000000041542B43F2
:1043A00050494E0041542B47534E000041542B437B
:1043B0005351000041542B434950535441545553D9
:1043C000000000002B504450EFBC9A444541435438
:1043D00000000000434F4E4E4543540041542B43D0
:1043E000495053544152540041542B43495053486F
:1043F00055540000414C5245414459001C440008AA
:1044000000000020B800000020270008D444000865
:10441000B8000020100F0000302700080000000046
:104420000000000000000000AC430008353A00081E
:104430006C430008B9370008A44300088D3A00080F
:104440009C4300088139000890430008D9370008D0
:10445000DC4300089D3D00087C43000891380008BB
:10446000F4430008C13B0008D4430008C93C0008DD
:1044700088430008713D000874430008693C000847
:10448000C44300087D3B0008B443000855390008C8
:10449000E8430008F53800080000000000000000B4
:1044A000000000000000000000000000000000000C
:1044B00000000000000000000000000000000000FC
:1044C00001000000040000000000000000127A005B
:0444D00000000000E8
:04000005080000B936
:00000001FF
